{
  "contractName": "ZodiacTest",
  "abi": [
    {
      "inputs": [],
      "stateMutability": "nonpayable",
      "type": "constructor"
    },
    {
      "anonymous": false,
      "inputs": [
        {
          "indexed": true,
          "internalType": "address",
          "name": "owner",
          "type": "address"
        },
        {
          "indexed": true,
          "internalType": "address",
          "name": "approved",
          "type": "address"
        },
        {
          "indexed": true,
          "internalType": "uint256",
          "name": "tokenId",
          "type": "uint256"
        }
      ],
      "name": "Approval",
      "type": "event"
    },
    {
      "anonymous": false,
      "inputs": [
        {
          "indexed": true,
          "internalType": "address",
          "name": "owner",
          "type": "address"
        },
        {
          "indexed": true,
          "internalType": "address",
          "name": "operator",
          "type": "address"
        },
        {
          "indexed": false,
          "internalType": "bool",
          "name": "approved",
          "type": "bool"
        }
      ],
      "name": "ApprovalForAll",
      "type": "event"
    },
    {
      "anonymous": false,
      "inputs": [
        {
          "indexed": true,
          "internalType": "address",
          "name": "previousOwner",
          "type": "address"
        },
        {
          "indexed": true,
          "internalType": "address",
          "name": "newOwner",
          "type": "address"
        }
      ],
      "name": "OwnershipTransferred",
      "type": "event"
    },
    {
      "anonymous": false,
      "inputs": [
        {
          "indexed": true,
          "internalType": "address",
          "name": "from",
          "type": "address"
        },
        {
          "indexed": true,
          "internalType": "address",
          "name": "to",
          "type": "address"
        },
        {
          "indexed": true,
          "internalType": "uint256",
          "name": "tokenId",
          "type": "uint256"
        }
      ],
      "name": "Transfer",
      "type": "event"
    },
    {
      "inputs": [
        {
          "internalType": "address",
          "name": "to",
          "type": "address"
        },
        {
          "internalType": "uint256",
          "name": "tokenId",
          "type": "uint256"
        }
      ],
      "name": "approve",
      "outputs": [],
      "stateMutability": "nonpayable",
      "type": "function"
    },
    {
      "inputs": [
        {
          "internalType": "address",
          "name": "owner",
          "type": "address"
        }
      ],
      "name": "balanceOf",
      "outputs": [
        {
          "internalType": "uint256",
          "name": "",
          "type": "uint256"
        }
      ],
      "stateMutability": "view",
      "type": "function",
      "constant": true
    },
    {
      "inputs": [],
      "name": "baseURI",
      "outputs": [
        {
          "internalType": "string",
          "name": "",
          "type": "string"
        }
      ],
      "stateMutability": "view",
      "type": "function",
      "constant": true
    },
    {
      "inputs": [
        {
          "internalType": "uint256",
          "name": "tokenId",
          "type": "uint256"
        }
      ],
      "name": "getApproved",
      "outputs": [
        {
          "internalType": "address",
          "name": "",
          "type": "address"
        }
      ],
      "stateMutability": "view",
      "type": "function",
      "constant": true
    },
    {
      "inputs": [
        {
          "internalType": "address",
          "name": "owner",
          "type": "address"
        },
        {
          "internalType": "address",
          "name": "operator",
          "type": "address"
        }
      ],
      "name": "isApprovedForAll",
      "outputs": [
        {
          "internalType": "bool",
          "name": "",
          "type": "bool"
        }
      ],
      "stateMutability": "view",
      "type": "function",
      "constant": true
    },
    {
      "inputs": [],
      "name": "maxToken",
      "outputs": [
        {
          "internalType": "uint256",
          "name": "",
          "type": "uint256"
        }
      ],
      "stateMutability": "view",
      "type": "function",
      "constant": true
    },
    {
      "inputs": [],
      "name": "name",
      "outputs": [
        {
          "internalType": "string",
          "name": "",
          "type": "string"
        }
      ],
      "stateMutability": "view",
      "type": "function",
      "constant": true
    },
    {
      "inputs": [],
      "name": "owner",
      "outputs": [
        {
          "internalType": "address",
          "name": "",
          "type": "address"
        }
      ],
      "stateMutability": "view",
      "type": "function",
      "constant": true
    },
    {
      "inputs": [
        {
          "internalType": "uint256",
          "name": "tokenId",
          "type": "uint256"
        }
      ],
      "name": "ownerOf",
      "outputs": [
        {
          "internalType": "address",
          "name": "",
          "type": "address"
        }
      ],
      "stateMutability": "view",
      "type": "function",
      "constant": true
    },
    {
      "inputs": [],
      "name": "randomPrice",
      "outputs": [
        {
          "internalType": "uint256",
          "name": "",
          "type": "uint256"
        }
      ],
      "stateMutability": "view",
      "type": "function",
      "constant": true
    },
    {
      "inputs": [],
      "name": "renounceOwnership",
      "outputs": [],
      "stateMutability": "nonpayable",
      "type": "function"
    },
    {
      "inputs": [
        {
          "internalType": "address",
          "name": "from",
          "type": "address"
        },
        {
          "internalType": "address",
          "name": "to",
          "type": "address"
        },
        {
          "internalType": "uint256",
          "name": "tokenId",
          "type": "uint256"
        }
      ],
      "name": "safeTransferFrom",
      "outputs": [],
      "stateMutability": "nonpayable",
      "type": "function"
    },
    {
      "inputs": [
        {
          "internalType": "address",
          "name": "from",
          "type": "address"
        },
        {
          "internalType": "address",
          "name": "to",
          "type": "address"
        },
        {
          "internalType": "uint256",
          "name": "tokenId",
          "type": "uint256"
        },
        {
          "internalType": "bytes",
          "name": "_data",
          "type": "bytes"
        }
      ],
      "name": "safeTransferFrom",
      "outputs": [],
      "stateMutability": "nonpayable",
      "type": "function"
    },
    {
      "inputs": [],
      "name": "selectedPrice",
      "outputs": [
        {
          "internalType": "uint256",
          "name": "",
          "type": "uint256"
        }
      ],
      "stateMutability": "view",
      "type": "function",
      "constant": true
    },
    {
      "inputs": [
        {
          "internalType": "address",
          "name": "operator",
          "type": "address"
        },
        {
          "internalType": "bool",
          "name": "approved",
          "type": "bool"
        }
      ],
      "name": "setApprovalForAll",
      "outputs": [],
      "stateMutability": "nonpayable",
      "type": "function"
    },
    {
      "inputs": [
        {
          "internalType": "bytes4",
          "name": "interfaceId",
          "type": "bytes4"
        }
      ],
      "name": "supportsInterface",
      "outputs": [
        {
          "internalType": "bool",
          "name": "",
          "type": "bool"
        }
      ],
      "stateMutability": "view",
      "type": "function",
      "constant": true
    },
    {
      "inputs": [],
      "name": "symbol",
      "outputs": [
        {
          "internalType": "string",
          "name": "",
          "type": "string"
        }
      ],
      "stateMutability": "view",
      "type": "function",
      "constant": true
    },
    {
      "inputs": [
        {
          "internalType": "uint256",
          "name": "index",
          "type": "uint256"
        }
      ],
      "name": "tokenByIndex",
      "outputs": [
        {
          "internalType": "uint256",
          "name": "",
          "type": "uint256"
        }
      ],
      "stateMutability": "view",
      "type": "function",
      "constant": true
    },
    {
      "inputs": [],
      "name": "tokenCounter",
      "outputs": [
        {
          "internalType": "uint256",
          "name": "",
          "type": "uint256"
        }
      ],
      "stateMutability": "view",
      "type": "function",
      "constant": true
    },
    {
      "inputs": [
        {
          "internalType": "address",
          "name": "owner",
          "type": "address"
        },
        {
          "internalType": "uint256",
          "name": "index",
          "type": "uint256"
        }
      ],
      "name": "tokenOfOwnerByIndex",
      "outputs": [
        {
          "internalType": "uint256",
          "name": "",
          "type": "uint256"
        }
      ],
      "stateMutability": "view",
      "type": "function",
      "constant": true
    },
    {
      "inputs": [
        {
          "internalType": "uint256",
          "name": "tokenId",
          "type": "uint256"
        }
      ],
      "name": "tokenURI",
      "outputs": [
        {
          "internalType": "string",
          "name": "",
          "type": "string"
        }
      ],
      "stateMutability": "view",
      "type": "function",
      "constant": true
    },
    {
      "inputs": [],
      "name": "totalSupply",
      "outputs": [
        {
          "internalType": "uint256",
          "name": "",
          "type": "uint256"
        }
      ],
      "stateMutability": "view",
      "type": "function",
      "constant": true
    },
    {
      "inputs": [
        {
          "internalType": "address",
          "name": "from",
          "type": "address"
        },
        {
          "internalType": "address",
          "name": "to",
          "type": "address"
        },
        {
          "internalType": "uint256",
          "name": "tokenId",
          "type": "uint256"
        }
      ],
      "name": "transferFrom",
      "outputs": [],
      "stateMutability": "nonpayable",
      "type": "function"
    },
    {
      "inputs": [
        {
          "internalType": "address",
          "name": "newOwner",
          "type": "address"
        }
      ],
      "name": "transferOwnership",
      "outputs": [],
      "stateMutability": "nonpayable",
      "type": "function"
    },
    {
      "inputs": [],
      "name": "randomMintPrice",
      "outputs": [
        {
          "internalType": "uint256",
          "name": "",
          "type": "uint256"
        }
      ],
      "stateMutability": "view",
      "type": "function",
      "constant": true
    },
    {
      "inputs": [],
      "name": "selectedMintPrice",
      "outputs": [
        {
          "internalType": "uint256",
          "name": "",
          "type": "uint256"
        }
      ],
      "stateMutability": "view",
      "type": "function",
      "constant": true
    },
    {
      "inputs": [],
      "name": "getMaxToken",
      "outputs": [
        {
          "internalType": "uint256",
          "name": "",
          "type": "uint256"
        }
      ],
      "stateMutability": "view",
      "type": "function",
      "constant": true
    },
    {
      "inputs": [
        {
          "internalType": "string",
          "name": "tokenURI",
          "type": "string"
        }
      ],
      "name": "randomMint",
      "outputs": [
        {
          "internalType": "uint256",
          "name": "",
          "type": "uint256"
        }
      ],
      "stateMutability": "payable",
      "type": "function",
      "payable": true
    },
    {
      "inputs": [
        {
          "internalType": "string",
          "name": "tokenURI",
          "type": "string"
        }
      ],
      "name": "mintToSelected",
      "outputs": [
        {
          "internalType": "uint256",
          "name": "",
          "type": "uint256"
        }
      ],
      "stateMutability": "payable",
      "type": "function",
      "payable": true
    },
    {
      "inputs": [],
      "name": "withdraw",
      "outputs": [],
      "stateMutability": "payable",
      "type": "function",
      "payable": true
    },
    {
      "inputs": [
        {
          "internalType": "uint256",
          "name": "_maxTokenValue",
          "type": "uint256"
        }
      ],
      "name": "setmaxToken",
      "outputs": [],
      "stateMutability": "nonpayable",
      "type": "function"
    },
    {
      "inputs": [
        {
          "internalType": "uint256",
          "name": "_randomPrice",
          "type": "uint256"
        }
      ],
      "name": "setRandomPrice",
      "outputs": [],
      "stateMutability": "nonpayable",
      "type": "function"
    },
    {
      "inputs": [
        {
          "internalType": "uint256",
          "name": "_selectedPrice",
          "type": "uint256"
        }
      ],
      "name": "setSelectedPrice",
      "outputs": [],
      "stateMutability": "nonpayable",
      "type": "function"
    }
  ],
  "bytecode": "0x60806040526002600c5566b1a2bc2ec50000600d55670214e8348c4f0000600e553480156200002d57600080fd5b506040518060400160405280600b81526020017f44726177696e67546573740000000000000000000000000000000000000000008152506040518060400160405280600381526020017f4452570000000000000000000000000000000000000000000000000000000000815250620000b26301ffc9a760e01b620001ed60201b60201c565b8160069080519060200190620000ca929190620002fe565b508060079080519060200190620000e3929190620002fe565b50620000fc6380ac58cd60e01b620001ed60201b60201c565b62000114635b5e139f60e01b620001ed60201b60201c565b6200012c63780e9d6360e01b620001ed60201b60201c565b5050600062000140620002f660201b60201c565b905080600a60006101000a81548173ffffffffffffffffffffffffffffffffffffffff021916908373ffffffffffffffffffffffffffffffffffffffff1602179055508073ffffffffffffffffffffffffffffffffffffffff16600073ffffffffffffffffffffffffffffffffffffffff167f8be0079c531659141344cd1fd0a4f28419497f9722a3daafe3b4186f6b6457e060405160405180910390a3506000600b81905550620003a4565b63ffffffff60e01b817bffffffffffffffffffffffffffffffffffffffffffffffffffffffff191614156200028a576040517f08c379a000000000000000000000000000000000000000000000000000000000815260040180806020018281038252601c8152602001807f4552433136353a20696e76616c696420696e746572666163652069640000000081525060200191505060405180910390fd5b6001600080837bffffffffffffffffffffffffffffffffffffffffffffffffffffffff19167bffffffffffffffffffffffffffffffffffffffffffffffffffffffff1916815260200190815260200160002060006101000a81548160ff02191690831515021790555050565b600033905090565b828054600181600116156101000203166002900490600052602060002090601f016020900481019282601f106200034157805160ff191683800117855562000372565b8280016001018555821562000372579182015b828111156200037157825182559160200191906001019062000354565b5b50905062000381919062000385565b5090565b5b80821115620003a057600081600090555060010162000386565b5090565b613a2e80620003b46000396000f3fe6080604052600436106101ee5760003560e01c80636c0360eb1161010d578063c2d50721116100a0578063db3ec5ab1161006f578063db3ec5ab14610c48578063e19cdc7814610d17578063e985e9c514610d52578063f2fde38b14610dd9578063f8420fac14610e2a576101ee565b8063c2d5072114610b03578063c87b56dd14610b3e578063ca69e32314610bf2578063d082e38114610c1d576101ee565b806395d89b41116100dc57806395d89b41146108c9578063a22cb46514610959578063ae7ae3de146109b6578063b88d4fde146109f1576101ee565b80636c0360eb1461077c57806370a082311461080c578063715018a6146108715780638da5cb5b14610888576101ee565b806327a72b9a1161018557806342842e0e1161015457806342842e0e146106225780634f6ccce71461069d57806357fb69fd146106ec5780636352211e14610717576101ee565b806327a72b9a146104af5780632f745c59146104da5780633bb0df89146105495780633ccfd60b14610618576101ee565b8063095ea7b3116101c1578063095ea7b3146103835780630a096373146103de57806318160ddd1461040957806323b872dd14610434576101ee565b806301ffc9a7146101f3578063051dc3331461026357806306fdde031461028e578063081812fc1461031e575b600080fd5b3480156101ff57600080fd5b5061024b6004803603602081101561021657600080fd5b8101908080357bffffffffffffffffffffffffffffffffffffffffffffffffffffffff19169060200190929190505050610e55565b60405180821515815260200191505060405180910390f35b34801561026f57600080fd5b50610278610ebc565b6040518082815260200191505060405180910390f35b34801561029a57600080fd5b506102a3610ec6565b6040518080602001828103825283818151815260200191508051906020019080838360005b838110156102e35780820151818401526020810190506102c8565b50505050905090810190601f1680156103105780820380516001836020036101000a031916815260200191505b509250505060405180910390f35b34801561032a57600080fd5b506103576004803603602081101561034157600080fd5b8101908080359060200190929190505050610f68565b604051808273ffffffffffffffffffffffffffffffffffffffff16815260200191505060405180910390f35b34801561038f57600080fd5b506103dc600480360360408110156103a657600080fd5b81019080803573ffffffffffffffffffffffffffffffffffffffff16906020019092919080359060200190929190505050611003565b005b3480156103ea57600080fd5b506103f3611147565b6040518082815260200191505060405180910390f35b34801561041557600080fd5b5061041e61114d565b6040518082815260200191505060405180910390f35b34801561044057600080fd5b506104ad6004803603606081101561045757600080fd5b81019080803573ffffffffffffffffffffffffffffffffffffffff169060200190929190803573ffffffffffffffffffffffffffffffffffffffff1690602001909291908035906020019092919050505061115e565b005b3480156104bb57600080fd5b506104c46111d4565b6040518082815260200191505060405180910390f35b3480156104e657600080fd5b50610533600480360360408110156104fd57600080fd5b81019080803573ffffffffffffffffffffffffffffffffffffffff169060200190929190803590602001909291905050506111de565b6040518082815260200191505060405180910390f35b6106026004803603602081101561055f57600080fd5b810190808035906020019064010000000081111561057c57600080fd5b82018360208201111561058e57600080fd5b803590602001918460018302840111640100000000831117156105b057600080fd5b91908080601f016020809104026020016040519081016040528093929190818152602001838380828437600081840152601f19601f820116905080830192505050505050509192919290505050611239565b6040518082815260200191505060405180910390f35b610620611322565b005b34801561062e57600080fd5b5061069b6004803603606081101561064557600080fd5b81019080803573ffffffffffffffffffffffffffffffffffffffff169060200190929190803573ffffffffffffffffffffffffffffffffffffffff16906020019092919080359060200190929190505050611411565b005b3480156106a957600080fd5b506106d6600480360360208110156106c057600080fd5b8101908080359060200190929190505050611431565b6040518082815260200191505060405180910390f35b3480156106f857600080fd5b50610701611454565b6040518082815260200191505060405180910390f35b34801561072357600080fd5b506107506004803603602081101561073a57600080fd5b810190808035906020019092919050505061145a565b604051808273ffffffffffffffffffffffffffffffffffffffff16815260200191505060405180910390f35b34801561078857600080fd5b50610791611491565b6040518080602001828103825283818151815260200191508051906020019080838360005b838110156107d15780820151818401526020810190506107b6565b50505050905090810190601f1680156107fe5780820380516001836020036101000a031916815260200191505b509250505060405180910390f35b34801561081857600080fd5b5061085b6004803603602081101561082f57600080fd5b81019080803573ffffffffffffffffffffffffffffffffffffffff169060200190929190505050611533565b6040518082815260200191505060405180910390f35b34801561087d57600080fd5b50610886611608565b005b34801561089457600080fd5b5061089d611778565b604051808273ffffffffffffffffffffffffffffffffffffffff16815260200191505060405180910390f35b3480156108d557600080fd5b506108de6117a2565b6040518080602001828103825283818151815260200191508051906020019080838360005b8381101561091e578082015181840152602081019050610903565b50505050905090810190601f16801561094b5780820380516001836020036101000a031916815260200191505b509250505060405180910390f35b34801561096557600080fd5b506109b46004803603604081101561097c57600080fd5b81019080803573ffffffffffffffffffffffffffffffffffffffff169060200190929190803515159060200190929190505050611844565b005b3480156109c257600080fd5b506109ef600480360360208110156109d957600080fd5b81019080803590602001909291905050506119fa565b005b3480156109fd57600080fd5b50610b0160048036036080811015610a1457600080fd5b81019080803573ffffffffffffffffffffffffffffffffffffffff169060200190929190803573ffffffffffffffffffffffffffffffffffffffff1690602001909291908035906020019092919080359060200190640100000000811115610a7b57600080fd5b820183602082011115610a8d57600080fd5b80359060200191846001830284011164010000000083111715610aaf57600080fd5b91908080601f016020809104026020016040519081016040528093929190818152602001838380828437600081840152601f19601f820116905080830192505050505050509192919290505050611ab3565b005b348015610b0f57600080fd5b50610b3c60048036036020811015610b2657600080fd5b8101908080359060200190929190505050611b2b565b005b348015610b4a57600080fd5b50610b7760048036036020811015610b6157600080fd5b8101908080359060200190929190505050611be4565b6040518080602001828103825283818151815260200191508051906020019080838360005b83811015610bb7578082015181840152602081019050610b9c565b50505050905090810190601f168015610be45780820380516001836020036101000a031916815260200191505b509250505060405180910390f35b348015610bfe57600080fd5b50610c07611eb5565b6040518082815260200191505060405180910390f35b348015610c2957600080fd5b50610c32611ebb565b6040518082815260200191505060405180910390f35b610d0160048036036020811015610c5e57600080fd5b8101908080359060200190640100000000811115610c7b57600080fd5b820183602082011115610c8d57600080fd5b80359060200191846001830284011164010000000083111715610caf57600080fd5b91908080601f016020809104026020016040519081016040528093929190818152602001838380828437600081840152601f19601f820116905080830192505050505050509192919290505050611ec1565b6040518082815260200191505060405180910390f35b348015610d2357600080fd5b50610d5060048036036020811015610d3a57600080fd5b8101908080359060200190929190505050611faa565b005b348015610d5e57600080fd5b50610dc160048036036040811015610d7557600080fd5b81019080803573ffffffffffffffffffffffffffffffffffffffff169060200190929190803573ffffffffffffffffffffffffffffffffffffffff169060200190929190505050612063565b60405180821515815260200191505060405180910390f35b348015610de557600080fd5b50610e2860048036036020811015610dfc57600080fd5b81019080803573ffffffffffffffffffffffffffffffffffffffff1690602001909291905050506120f7565b005b348015610e3657600080fd5b50610e3f6122ec565b6040518082815260200191505060405180910390f35b6000806000837bffffffffffffffffffffffffffffffffffffffffffffffffffffffff19167bffffffffffffffffffffffffffffffffffffffffffffffffffffffff1916815260200190815260200160002060009054906101000a900460ff169050919050565b6000600c54905090565b606060068054600181600116156101000203166002900480601f016020809104026020016040519081016040528092919081815260200182805460018160011615610100020316600290048015610f5e5780601f10610f3357610100808354040283529160200191610f5e565b820191906000526020600020905b815481529060010190602001808311610f4157829003601f168201915b5050505050905090565b6000610f73826122f6565b610fc8576040517f08c379a000000000000000000000000000000000000000000000000000000000815260040180806020018281038252602c8152602001806138ae602c913960400191505060405180910390fd5b6004600083815260200190815260200160002060009054906101000a900473ffffffffffffffffffffffffffffffffffffffff169050919050565b600061100e8261145a565b90508073ffffffffffffffffffffffffffffffffffffffff168373ffffffffffffffffffffffffffffffffffffffff161415611095576040517f08c379a000000000000000000000000000000000000000000000000000000000815260040180806020018281038252602181526020018061395e6021913960400191505060405180910390fd5b8073ffffffffffffffffffffffffffffffffffffffff166110b4612313565b73ffffffffffffffffffffffffffffffffffffffff1614806110e357506110e2816110dd612313565b612063565b5b611138576040517f08c379a00000000000000000000000000000000000000000000000000000000081526004018080602001828103825260388152602001806137dd6038913960400191505060405180910390fd5b611142838361231b565b505050565b600d5481565b600061115960026123d4565b905090565b61116f611169612313565b826123e9565b6111c4576040517f08c379a00000000000000000000000000000000000000000000000000000000081526004018080602001828103825260318152602001806139a56031913960400191505060405180910390fd5b6111cf8383836124dd565b505050565b6000600d54905090565b600061123182600160008673ffffffffffffffffffffffffffffffffffffffff1673ffffffffffffffffffffffffffffffffffffffff16815260200190815260200160002061272090919063ffffffff16565b905092915050565b6000600b54600c5411611297576040517f08c379a00000000000000000000000000000000000000000000000000000000081526004018080602001828103825260238152602001806139d66023913960400191505060405180910390fd5b600d543410156112f2576040517f08c379a000000000000000000000000000000000000000000000000000000000815260040180806020018281038252602481526020018061388a6024913960400191505060405180910390fd5b6001600b5401600b819055506000600b54905061130f338261273a565b6113198184612758565b80915050919050565b61132a612313565b73ffffffffffffffffffffffffffffffffffffffff16611348611778565b73ffffffffffffffffffffffffffffffffffffffff16146113d1576040517f08c379a00000000000000000000000000000000000000000000000000000000081526004018080602001828103825260208152602001807f4f776e61626c653a2063616c6c6572206973206e6f7420746865206f776e657281525060200191505060405180910390fd5b3373ffffffffffffffffffffffffffffffffffffffff166108fc479081150290604051600060405180830381858888f1935050505061140f57600080fd5b565b61142c83838360405180602001604052806000815250611ab3565b505050565b6000806114488360026127e290919063ffffffff16565b50905080915050919050565b600e5481565b600061148a8260405180606001604052806029815260200161383f60299139600261280e9092919063ffffffff16565b9050919050565b606060098054600181600116156101000203166002900480601f0160208091040260200160405190810160405280929190818152602001828054600181600116156101000203166002900480156115295780601f106114fe57610100808354040283529160200191611529565b820191906000526020600020905b81548152906001019060200180831161150c57829003601f168201915b5050505050905090565b60008073ffffffffffffffffffffffffffffffffffffffff168273ffffffffffffffffffffffffffffffffffffffff1614156115ba576040517f08c379a000000000000000000000000000000000000000000000000000000000815260040180806020018281038252602a815260200180613815602a913960400191505060405180910390fd5b611601600160008473ffffffffffffffffffffffffffffffffffffffff1673ffffffffffffffffffffffffffffffffffffffff16815260200190815260200160002061282d565b9050919050565b611610612313565b73ffffffffffffffffffffffffffffffffffffffff1661162e611778565b73ffffffffffffffffffffffffffffffffffffffff16146116b7576040517f08c379a00000000000000000000000000000000000000000000000000000000081526004018080602001828103825260208152602001807f4f776e61626c653a2063616c6c6572206973206e6f7420746865206f776e657281525060200191505060405180910390fd5b600073ffffffffffffffffffffffffffffffffffffffff16600a60009054906101000a900473ffffffffffffffffffffffffffffffffffffffff1673ffffffffffffffffffffffffffffffffffffffff167f8be0079c531659141344cd1fd0a4f28419497f9722a3daafe3b4186f6b6457e060405160405180910390a36000600a60006101000a81548173ffffffffffffffffffffffffffffffffffffffff021916908373ffffffffffffffffffffffffffffffffffffffff160217905550565b6000600a60009054906101000a900473ffffffffffffffffffffffffffffffffffffffff16905090565b606060078054600181600116156101000203166002900480601f01602080910402602001604051908101604052809291908181526020018280546001816001161561010002031660029004801561183a5780601f1061180f5761010080835404028352916020019161183a565b820191906000526020600020905b81548152906001019060200180831161181d57829003601f168201915b5050505050905090565b61184c612313565b73ffffffffffffffffffffffffffffffffffffffff168273ffffffffffffffffffffffffffffffffffffffff1614156118ed576040517f08c379a00000000000000000000000000000000000000000000000000000000081526004018080602001828103825260198152602001807f4552433732313a20617070726f766520746f2063616c6c65720000000000000081525060200191505060405180910390fd5b80600560006118fa612313565b73ffffffffffffffffffffffffffffffffffffffff1673ffffffffffffffffffffffffffffffffffffffff16815260200190815260200160002060008473ffffffffffffffffffffffffffffffffffffffff1673ffffffffffffffffffffffffffffffffffffffff16815260200190815260200160002060006101000a81548160ff0219169083151502179055508173ffffffffffffffffffffffffffffffffffffffff166119a7612313565b73ffffffffffffffffffffffffffffffffffffffff167f17307eab39ab6107e8899845ad3d59bd9653f200f220920489ca2b5937696c318360405180821515815260200191505060405180910390a35050565b611a02612313565b73ffffffffffffffffffffffffffffffffffffffff16611a20611778565b73ffffffffffffffffffffffffffffffffffffffff1614611aa9576040517f08c379a00000000000000000000000000000000000000000000000000000000081526004018080602001828103825260208152602001807f4f776e61626c653a2063616c6c6572206973206e6f7420746865206f776e657281525060200191505060405180910390fd5b80600c8190555050565b611ac4611abe612313565b836123e9565b611b19576040517f08c379a00000000000000000000000000000000000000000000000000000000081526004018080602001828103825260318152602001806139a56031913960400191505060405180910390fd5b611b2584848484612842565b50505050565b611b33612313565b73ffffffffffffffffffffffffffffffffffffffff16611b51611778565b73ffffffffffffffffffffffffffffffffffffffff1614611bda576040517f08c379a00000000000000000000000000000000000000000000000000000000081526004018080602001828103825260208152602001807f4f776e61626c653a2063616c6c6572206973206e6f7420746865206f776e657281525060200191505060405180910390fd5b80600d8190555050565b6060611bef826122f6565b611c44576040517f08c379a000000000000000000000000000000000000000000000000000000000815260040180806020018281038252602f81526020018061392f602f913960400191505060405180910390fd5b6060600860008481526020019081526020016000208054600181600116156101000203166002900480601f016020809104026020016040519081016040528092919081815260200182805460018160011615610100020316600290048015611ced5780601f10611cc257610100808354040283529160200191611ced565b820191906000526020600020905b815481529060010190602001808311611cd057829003601f168201915b505050505090506060611cfe611491565b9050600081511415611d14578192505050611eb0565b600082511115611de55780826040516020018083805190602001908083835b60208310611d565780518252602082019150602081019050602083039250611d33565b6001836020036101000a03801982511681845116808217855250505050505090500182805190602001908083835b60208310611da75780518252602082019150602081019050602083039250611d84565b6001836020036101000a0380198251168184511680821785525050505050509050019250505060405160208183030381529060405292505050611eb0565b80611def856128b4565b6040516020018083805190602001908083835b60208310611e255780518252602082019150602081019050602083039250611e02565b6001836020036101000a03801982511681845116808217855250505050505090500182805190602001908083835b60208310611e765780518252602082019150602081019050602083039250611e53565b6001836020036101000a03801982511681845116808217855250505050505090500192505050604051602081830303815290604052925050505b919050565b600c5481565b600b5481565b6000600b54600c5411611f1f576040517f08c379a00000000000000000000000000000000000000000000000000000000081526004018080602001828103825260238152602001806139d66023913960400191505060405180910390fd5b600e54341015611f7a576040517f08c379a000000000000000000000000000000000000000000000000000000000815260040180806020018281038252602681526020018061397f6026913960400191505060405180910390fd5b6001600b5401600b819055506000600b549050611f97338261273a565b611fa18184612758565b80915050919050565b611fb2612313565b73ffffffffffffffffffffffffffffffffffffffff16611fd0611778565b73ffffffffffffffffffffffffffffffffffffffff1614612059576040517f08c379a00000000000000000000000000000000000000000000000000000000081526004018080602001828103825260208152602001807f4f776e61626c653a2063616c6c6572206973206e6f7420746865206f776e657281525060200191505060405180910390fd5b80600e8190555050565b6000600560008473ffffffffffffffffffffffffffffffffffffffff1673ffffffffffffffffffffffffffffffffffffffff16815260200190815260200160002060008373ffffffffffffffffffffffffffffffffffffffff1673ffffffffffffffffffffffffffffffffffffffff16815260200190815260200160002060009054906101000a900460ff16905092915050565b6120ff612313565b73ffffffffffffffffffffffffffffffffffffffff1661211d611778565b73ffffffffffffffffffffffffffffffffffffffff16146121a6576040517f08c379a00000000000000000000000000000000000000000000000000000000081526004018080602001828103825260208152602001807f4f776e61626c653a2063616c6c6572206973206e6f7420746865206f776e657281525060200191505060405180910390fd5b600073ffffffffffffffffffffffffffffffffffffffff168173ffffffffffffffffffffffffffffffffffffffff16141561222c576040517f08c379a00000000000000000000000000000000000000000000000000000000081526004018080602001828103825260268152602001806137416026913960400191505060405180910390fd5b8073ffffffffffffffffffffffffffffffffffffffff16600a60009054906101000a900473ffffffffffffffffffffffffffffffffffffffff1673ffffffffffffffffffffffffffffffffffffffff167f8be0079c531659141344cd1fd0a4f28419497f9722a3daafe3b4186f6b6457e060405160405180910390a380600a60006101000a81548173ffffffffffffffffffffffffffffffffffffffff021916908373ffffffffffffffffffffffffffffffffffffffff16021790555050565b6000600e54905090565b600061230c8260026129fb90919063ffffffff16565b9050919050565b600033905090565b816004600083815260200190815260200160002060006101000a81548173ffffffffffffffffffffffffffffffffffffffff021916908373ffffffffffffffffffffffffffffffffffffffff160217905550808273ffffffffffffffffffffffffffffffffffffffff1661238e8361145a565b73ffffffffffffffffffffffffffffffffffffffff167f8c5be1e5ebec7d5bd14f71427d1e84f3dd0314c0f7b2291e5b200ac8c7c3b92560405160405180910390a45050565b60006123e282600001612a15565b9050919050565b60006123f4826122f6565b612449576040517f08c379a000000000000000000000000000000000000000000000000000000000815260040180806020018281038252602c8152602001806137b1602c913960400191505060405180910390fd5b60006124548361145a565b90508073ffffffffffffffffffffffffffffffffffffffff168473ffffffffffffffffffffffffffffffffffffffff1614806124c357508373ffffffffffffffffffffffffffffffffffffffff166124ab84610f68565b73ffffffffffffffffffffffffffffffffffffffff16145b806124d457506124d38185612063565b5b91505092915050565b8273ffffffffffffffffffffffffffffffffffffffff166124fd8261145a565b73ffffffffffffffffffffffffffffffffffffffff1614612569576040517f08c379a00000000000000000000000000000000000000000000000000000000081526004018080602001828103825260298152602001806139066029913960400191505060405180910390fd5b600073ffffffffffffffffffffffffffffffffffffffff168273ffffffffffffffffffffffffffffffffffffffff1614156125ef576040517f08c379a00000000000000000000000000000000000000000000000000000000081526004018080602001828103825260248152602001806137676024913960400191505060405180910390fd5b6125fa838383612a26565b61260560008261231b565b61265681600160008673ffffffffffffffffffffffffffffffffffffffff1673ffffffffffffffffffffffffffffffffffffffff168152602001908152602001600020612a2b90919063ffffffff16565b506126a881600160008573ffffffffffffffffffffffffffffffffffffffff1673ffffffffffffffffffffffffffffffffffffffff168152602001908152602001600020612a4590919063ffffffff16565b506126bf81836002612a5f9092919063ffffffff16565b50808273ffffffffffffffffffffffffffffffffffffffff168473ffffffffffffffffffffffffffffffffffffffff167fddf252ad1be2c89b69c2b068fc378daa952ba7f163c4a11628f55a4df523b3ef60405160405180910390a4505050565b600061272f8360000183612a94565b60001c905092915050565b612754828260405180602001604052806000815250612b17565b5050565b612761826122f6565b6127b6576040517f08c379a000000000000000000000000000000000000000000000000000000000815260040180806020018281038252602c8152602001806138da602c913960400191505060405180910390fd5b806008600084815260200190815260200160002090805190602001906127dd92919061364f565b505050565b6000806000806127f58660000186612b88565b915091508160001c8160001c9350935050509250929050565b6000612821846000018460001b84612c21565b60001c90509392505050565b600061283b82600001612d17565b9050919050565b61284d8484846124dd565b61285984848484612d28565b6128ae576040517f08c379a000000000000000000000000000000000000000000000000000000000815260040180806020018281038252603281526020018061370f6032913960400191505060405180910390fd5b50505050565b606060008214156128fc576040518060400160405280600181526020017f300000000000000000000000000000000000000000000000000000000000000081525090506129f6565b600082905060005b60008214612926578080600101915050600a828161291e57fe5b049150612904565b60608167ffffffffffffffff8111801561293f57600080fd5b506040519080825280601f01601f1916602001820160405280156129725781602001600182028036833780820191505090505b50905060006001830390508593505b600084146129ee57600a848161299357fe5b0660300160f81b828280600190039350815181106129ad57fe5b60200101907effffffffffffffffffffffffffffffffffffffffffffffffffffffffffffff1916908160001a905350600a84816129e657fe5b049350612981565b819450505050505b919050565b6000612a0d836000018360001b612f41565b905092915050565b600081600001805490509050919050565b505050565b6000612a3d836000018360001b612f64565b905092915050565b6000612a57836000018360001b61304c565b905092915050565b6000612a8b846000018460001b8473ffffffffffffffffffffffffffffffffffffffff1660001b6130bc565b90509392505050565b600081836000018054905011612af5576040517f08c379a00000000000000000000000000000000000000000000000000000000081526004018080602001828103825260228152602001806136ed6022913960400191505060405180910390fd5b826000018281548110612b0457fe5b9060005260206000200154905092915050565b612b218383613198565b612b2e6000848484612d28565b612b83576040517f08c379a000000000000000000000000000000000000000000000000000000000815260040180806020018281038252603281526020018061370f6032913960400191505060405180910390fd5b505050565b60008082846000018054905011612bea576040517f08c379a00000000000000000000000000000000000000000000000000000000081526004018080602001828103825260228152602001806138686022913960400191505060405180910390fd5b6000846000018481548110612bfb57fe5b906000526020600020906002020190508060000154816001015492509250509250929050565b60008084600101600085815260200190815260200160002054905060008114158390612ce8576040517f08c379a00000000000000000000000000000000000000000000000000000000081526004018080602001828103825283818151815260200191508051906020019080838360005b83811015612cad578082015181840152602081019050612c92565b50505050905090810190601f168015612cda5780820380516001836020036101000a031916815260200191505b509250505060405180910390fd5b50846000016001820381548110612cfb57fe5b9060005260206000209060020201600101549150509392505050565b600081600001805490509050919050565b6000612d498473ffffffffffffffffffffffffffffffffffffffff1661338c565b612d565760019050612f39565b6060612ec063150b7a0260e01b612d6b612313565b888787604051602401808573ffffffffffffffffffffffffffffffffffffffff1681526020018473ffffffffffffffffffffffffffffffffffffffff16815260200183815260200180602001828103825283818151815260200191508051906020019080838360005b83811015612def578082015181840152602081019050612dd4565b50505050905090810190601f168015612e1c5780820380516001836020036101000a031916815260200191505b5095505050505050604051602081830303815290604052907bffffffffffffffffffffffffffffffffffffffffffffffffffffffff19166020820180517bffffffffffffffffffffffffffffffffffffffffffffffffffffffff838183161783525050505060405180606001604052806032815260200161370f603291398773ffffffffffffffffffffffffffffffffffffffff1661339f9092919063ffffffff16565b90506000818060200190516020811015612ed957600080fd5b8101908080519060200190929190505050905063150b7a0260e01b7bffffffffffffffffffffffffffffffffffffffffffffffffffffffff1916817bffffffffffffffffffffffffffffffffffffffffffffffffffffffff191614925050505b949350505050565b600080836001016000848152602001908152602001600020541415905092915050565b600080836001016000848152602001908152602001600020549050600081146130405760006001820390506000600186600001805490500390506000866000018281548110612faf57fe5b9060005260206000200154905080876000018481548110612fcc57fe5b906000526020600020018190555060018301876001016000838152602001908152602001600020819055508660000180548061300457fe5b60019003818190600052602060002001600090559055866001016000878152602001908152602001600020600090556001945050505050613046565b60009150505b92915050565b600061305883836133b7565b6130b15782600001829080600181540180825580915050600190039060005260206000200160009091909190915055826000018054905083600101600084815260200190815260200160002081905550600190506130b6565b600090505b92915050565b600080846001016000858152602001908152602001600020549050600081141561316357846000016040518060400160405280868152602001858152509080600181540180825580915050600190039060005260206000209060020201600090919091909150600082015181600001556020820151816001015550508460000180549050856001016000868152602001908152602001600020819055506001915050613191565b8285600001600183038154811061317657fe5b90600052602060002090600202016001018190555060009150505b9392505050565b600073ffffffffffffffffffffffffffffffffffffffff168273ffffffffffffffffffffffffffffffffffffffff16141561323b576040517f08c379a00000000000000000000000000000000000000000000000000000000081526004018080602001828103825260208152602001807f4552433732313a206d696e7420746f20746865207a65726f206164647265737381525060200191505060405180910390fd5b613244816122f6565b156132b7576040517f08c379a000000000000000000000000000000000000000000000000000000000815260040180806020018281038252601c8152602001807f4552433732313a20746f6b656e20616c7265616479206d696e7465640000000081525060200191505060405180910390fd5b6132c360008383612a26565b61331481600160008573ffffffffffffffffffffffffffffffffffffffff1673ffffffffffffffffffffffffffffffffffffffff168152602001908152602001600020612a4590919063ffffffff16565b5061332b81836002612a5f9092919063ffffffff16565b50808273ffffffffffffffffffffffffffffffffffffffff16600073ffffffffffffffffffffffffffffffffffffffff167fddf252ad1be2c89b69c2b068fc378daa952ba7f163c4a11628f55a4df523b3ef60405160405180910390a45050565b600080823b905060008111915050919050565b60606133ae84846000856133da565b90509392505050565b600080836001016000848152602001908152602001600020541415905092915050565b606082471015613435576040517f08c379a000000000000000000000000000000000000000000000000000000000815260040180806020018281038252602681526020018061378b6026913960400191505060405180910390fd5b61343e8561338c565b6134b0576040517f08c379a000000000000000000000000000000000000000000000000000000000815260040180806020018281038252601d8152602001807f416464726573733a2063616c6c20746f206e6f6e2d636f6e747261637400000081525060200191505060405180910390fd5b600060608673ffffffffffffffffffffffffffffffffffffffff1685876040518082805190602001908083835b6020831061350057805182526020820191506020810190506020830392506134dd565b6001836020036101000a03801982511681845116808217855250505050505090500191505060006040518083038185875af1925050503d8060008114613562576040519150601f19603f3d011682016040523d82523d6000602084013e613567565b606091505b5091509150613577828286613583565b92505050949350505050565b6060831561359357829050613648565b6000835111156135a65782518084602001fd5b816040517f08c379a00000000000000000000000000000000000000000000000000000000081526004018080602001828103825283818151815260200191508051906020019080838360005b8381101561360d5780820151818401526020810190506135f2565b50505050905090810190601f16801561363a5780820380516001836020036101000a031916815260200191505b509250505060405180910390fd5b9392505050565b828054600181600116156101000203166002900490600052602060002090601f016020900481019282601f1061369057805160ff19168380011785556136be565b828001600101855582156136be579182015b828111156136bd5782518255916020019190600101906136a2565b5b5090506136cb91906136cf565b5090565b5b808211156136e85760008160009055506001016136d0565b509056fe456e756d657261626c655365743a20696e646578206f7574206f6620626f756e64734552433732313a207472616e7366657220746f206e6f6e20455243373231526563656976657220696d706c656d656e7465724f776e61626c653a206e6577206f776e657220697320746865207a65726f20616464726573734552433732313a207472616e7366657220746f20746865207a65726f2061646472657373416464726573733a20696e73756666696369656e742062616c616e636520666f722063616c6c4552433732313a206f70657261746f7220717565727920666f72206e6f6e6578697374656e7420746f6b656e4552433732313a20617070726f76652063616c6c6572206973206e6f74206f776e6572206e6f7220617070726f76656420666f7220616c6c4552433732313a2062616c616e636520717565727920666f7220746865207a65726f20616464726573734552433732313a206f776e657220717565727920666f72206e6f6e6578697374656e7420746f6b656e456e756d657261626c654d61703a20696e646578206f7574206f6620626f756e647356616c75652062656c6f772072616e646f6d206e6674206d696e74696e672070726963654552433732313a20617070726f76656420717565727920666f72206e6f6e6578697374656e7420746f6b656e4552433732314d657461646174613a2055524920736574206f66206e6f6e6578697374656e7420746f6b656e4552433732313a207472616e73666572206f6620746f6b656e2074686174206973206e6f74206f776e4552433732314d657461646174613a2055524920717565727920666f72206e6f6e6578697374656e7420746f6b656e4552433732313a20617070726f76616c20746f2063757272656e74206f776e657256616c75652062656c6f772073656c6563746564206e6674206d696e74696e672070726963654552433732313a207472616e736665722063616c6c6572206973206e6f74206f776e6572206e6f7220617070726f7665644d6178696d756d206e756d626572206974656d20686173206265656e206d696e746564a26469706673582212205aebc88eb699b3912de778a30ea7dba5491c11653a20d6a125053e707fc8f15f64736f6c634300060c0033",
  "immutableReferences": {},
  "source": "// SPDX-License-Identifier: MIT\n\npragma solidity ^0.6.12;\n\nimport \"@openzeppelin/contracts/token/ERC721/ERC721.sol\";\nimport \"@openzeppelin/contracts/access/Ownable.sol\";\n\ncontract ZodiacTest is ERC721, Ownable {\n    uint256 public tokenCounter;\n    uint256 public maxToken = 2;\n    // address public owner;\n    uint256 public randomPrice = 0.05 ether;\n    uint256 public selectedPrice = 0.15 ether;\n\n    constructor() public ERC721(\"DrawingTest\", \"DRW\") {\n        tokenCounter = 0;\n        // owner = msg.sender;\n    }\n\n    function randomMintPrice() external view returns (uint256){\n        return randomPrice;\n    }\n\n    function selectedMintPrice() external view returns (uint256){\n        return selectedPrice;\n    }\n\n    function getMaxToken() external view returns (uint256){\n        return maxToken;\n    }\n\n    \n    function randomMint(string memory tokenURI)  public payable returns (uint256)\n    {\n        require(maxToken > tokenCounter ,'Maximum number item has been minted');\n        require(msg.value >= randomPrice, 'Value below random nft minting price');\n        \n        tokenCounter = tokenCounter + 1;\n        uint256 newItemId = tokenCounter;\n        \n        _safeMint(msg.sender, newItemId);\n        _setTokenURI(newItemId, tokenURI);\n        \n        return newItemId;\n    }\n\n    function mintToSelected(string memory tokenURI) public payable returns (uint256)\n    {\n        require(maxToken > tokenCounter ,'Maximum number item has been minted');\n        // require(msg.value >= selectedPrice, '');\n        require(msg.value >= selectedPrice, 'Value below selected nft minting price');\n\n        tokenCounter = tokenCounter + 1;\n        uint256 newItemId = tokenCounter;\n\n        _safeMint(msg.sender, newItemId);\n        _setTokenURI(newItemId, tokenURI);\n\n        return newItemId;\n    }\n\n    function withdraw() public payable onlyOwner() {\n        require(payable(msg.sender).send(address(this).balance));\n    }\n\n    function setmaxToken(uint256 _maxTokenValue) public onlyOwner() {\n        maxToken = _maxTokenValue;\n    }\n\n    function setRandomPrice(uint256 _randomPrice) public onlyOwner {\n        randomPrice = _randomPrice;\n    }\n\n    function setSelectedPrice(uint256 _selectedPrice) public onlyOwner {\n        selectedPrice = _selectedPrice;\n    }\n\n    // internal\n    // function _baseURI() internal view virtual override returns (string memory) {\n    //     return baseURI;\n    // }\n    \n    // function setBaseURI(string memory _newBaseURI) public onlyOwner() {\n    //     baseURI = _newBaseURI;\n    // }\n\n}\n",
  "sourcePath": "/home/maulik/Desktop/zodiac/testcontract/contracts/ZodiacTest.sol",
  "compiler": {
    "name": "solc",
    "version": "0.6.12+commit.27d51765.Emscripten.clang"
  },
  "schemaVersion": "3.4.3",
  "updatedAt": "2021-10-22T09:25:24.675Z",
  "networkType": "ethereum",
  "devdoc": {
    "kind": "dev",
    "methods": {
      "approve(address,uint256)": {
        "details": "See {IERC721-approve}."
      },
      "balanceOf(address)": {
        "details": "See {IERC721-balanceOf}."
      },
      "baseURI()": {
        "details": "Returns the base URI set via {_setBaseURI}. This will be automatically added as a prefix in {tokenURI} to each token's URI, or to the token ID if no specific URI is set for that token ID."
      },
      "getApproved(uint256)": {
        "details": "See {IERC721-getApproved}."
      },
      "isApprovedForAll(address,address)": {
        "details": "See {IERC721-isApprovedForAll}."
      },
      "name()": {
        "details": "See {IERC721Metadata-name}."
      },
      "owner()": {
        "details": "Returns the address of the current owner."
      },
      "ownerOf(uint256)": {
        "details": "See {IERC721-ownerOf}."
      },
      "renounceOwnership()": {
        "details": "Leaves the contract without owner. It will not be possible to call `onlyOwner` functions anymore. Can only be called by the current owner. NOTE: Renouncing ownership will leave the contract without an owner, thereby removing any functionality that is only available to the owner."
      },
      "safeTransferFrom(address,address,uint256)": {
        "details": "See {IERC721-safeTransferFrom}."
      },
      "safeTransferFrom(address,address,uint256,bytes)": {
        "details": "See {IERC721-safeTransferFrom}."
      },
      "setApprovalForAll(address,bool)": {
        "details": "See {IERC721-setApprovalForAll}."
      },
      "supportsInterface(bytes4)": {
        "details": "See {IERC165-supportsInterface}. Time complexity O(1), guaranteed to always use less than 30 000 gas."
      },
      "symbol()": {
        "details": "See {IERC721Metadata-symbol}."
      },
      "tokenByIndex(uint256)": {
        "details": "See {IERC721Enumerable-tokenByIndex}."
      },
      "tokenOfOwnerByIndex(address,uint256)": {
        "details": "See {IERC721Enumerable-tokenOfOwnerByIndex}."
      },
      "tokenURI(uint256)": {
        "details": "See {IERC721Metadata-tokenURI}."
      },
      "totalSupply()": {
        "details": "See {IERC721Enumerable-totalSupply}."
      },
      "transferFrom(address,address,uint256)": {
        "details": "See {IERC721-transferFrom}."
      },
      "transferOwnership(address)": {
        "details": "Transfers ownership of the contract to a new account (`newOwner`). Can only be called by the current owner."
      }
    },
    "version": 1
  },
  "userdoc": {
    "kind": "user",
    "methods": {},
    "version": 1
  }
}